S0120000736572766F5F64656D6F2E73726563DF
S11300000C942A000C943F000C943F000C943F0085
S11300100C943F000C943F000C943F000C943F0060
S11300200C943F000C943F000C943F000C943F0050
S11300300C943F000C943F000C943F000C943F0040
S11300400C943F000C943F000C943F000C943F0030
S11300500C943F0011241FBECFE5D8E0DEBFCDBF16
S113006010E0A0E6B0E0E8E4FCE002C005900D92E8
S1130070AC36B107D9F70E94AE020C9422060C9458
S11300800000672B09F07FC0009709F4FCC08130A1
S1130090910509F4FCC08230910509F4FCC0833059
S11300A0910509F404C18430910509F402C1853035
S11300B0910509F402C18630910509F404C1873021
S11300C0910509F404C18A30910509F404C18B3007
S11300D0910509F4E4C08C30910509F4FEC08D301B
S11300E0910509F4FEC08E30910509F400C18F30EA
S11300F0910509F400C18031910509F400C18131F1
S1130100910509F400C18431910509F4FEC08531DB
S1130110910509F4FEC08631910509F4FEC08731CA
S1130120910509F4FEC08831910509F400C18931B3
S1130130910509F400C18A31910509F400C18B319C
S1130140910509F400C18E31910509F4FEC08F3187
S1130150910509F4FEC08032910509F408C1813289
S1130160910509F402C18232910509F4FCC083327D
S1130170910509F404C18432910509F4FCC0859702
S113018009F491C00895009709F47FC08130910566
S113019009F47FC08230910509F47FC08330910552
S11301A009F483C08430910509F485C08530910534
S11301B009F485C08630910509F483C08730910520
S11301C009F483C08A30910509F483C08B3091050A
S11301D009F467C08C30910509F481C08D30910514
S11301E009F481C08E30910509F47FC08F309105E8
S11301F009F47FC08031910509F47FC081319105F4
S113020009F47FC08431910509F481C085319105D9
S113021009F481C08631910509F481C087319105C3
S113022009F481C08831910509F47FC089319105B1
S113023009F47FC08A31910509F47FC08B3191059F
S113024009F47FC08E31910509F481C08F31910585
S113025009F481C08032910509F483C0813291058B
S113026009F47DC08232910509F477C08332910587
S113027009F483C08432910509F47BC0859709F0A1
S113028081CF979A0895D8980895D89A0895D998BF
S11302900895D99A0895DA980895DA9A0895C19834
S11302A00895C19A089597980895DB9A0895DB9864
S11302B00895DC980895DC9A0895DD980895DD9AF0
S11302C00895DE9A0895DE980895DF9A0895DF98D8
S11302D00895C09A0895C0980895C2980895C29A3E
S11302E00895C3980895C39A0895C49A0895C49824
S11302F00895C59A0895C5980895C69A0895C6980C
S11303000895C79A0895C7980895A8980895A89A33
S11303100895A9980895A99A0895AA980895AA9A5B
S11303200895AB980895AB9A0895AC9A0895AC9843
S11303300895AD9A0895AD980895AE9A0895AE982B
S11303400895AF9A0895AF98089590980895909A53
S1130350089591980895919A0895949A0895939A76
S11303600895929A08959498089593980895929868
S11303700895969A089596980895959A089595984B
S11303800895CF93C82F80FF1FC061E070E082E220
S113039090E00E944100C1FF1FC061E070E083E271
S11303A090E00E944100C2FF1FC061E070E084E25F
S11303B090E00E944100C3FD1FC060E070E085E250
S11303C090E0CF910C94410060E070E082E290E014
S11303D00E944100C1FDE1CF60E070E083E290E063
S11303E00E944100C2FDE1CF60E070E084E290E051
S11303F00E944100C3FFE1CF61E070E085E290E03C
S1130400CF910C944100CF93C82F60E070E08AE153
S113041090E00E9441008C2F0E94C10161E070E0D5
S11304208BE190E00E9441008FE99FE00197F1F792
S113043000C0000060E070E08BE190E00E944100A9
S11304408FE99FE00197F1F700C00000CF91089574
S1130450CF93C82F80E88C0F82958F700E9403027F
S11304608C2F8F70CF910C94030280E00E94C10105
S11304702FEF89EF90E0215080409040E1F700C0D9
S1130480000083E00E9403028FE19EE40197F1F7EC
S113049000C0000083E00E9403028FED9BEA0197F5
S11304A0F1F700C0000083E00E94030282E00E9492
S11304B0030282E00E94030288E00E94030280E0BB
S11304C00E9403028CE00E94030280E00E94030267
S11304D086E00C940302CF93C82F61E070E08AE1B8
S11304E090E00E9441008C2F82958F700E94C10180
S11304F061E070E08BE190E00E9441008FE99FE0B1
S11305000197F1F700C0000060E070E08BE190E03B
S11305100E9441008FE99FE00197F1F700C00000BD
S11305208C2F8F700E94C10161E070E08BE190E03C
S11305300E9441008FE99FE00197F1F700C000009D
S113054060E070E08BE190E00E9441008FE99FE061
S11305500197F1F700C00000CF910895CF93DF9386
S1130560CDB7DEB7DA950FB6F894DEBF0FBECDBFB8
S11305708FEF84BB81BB87BB84EE86B910BE0E941B
S1130580350280E00E94030281E00E94030280E0C1
S11305900E94280201E610E084E50E946B02F80143
S11305A081918F018111F9CF9E012F5F3F4F790116
S11305B0E0E45E2EFDE76F2EA12CBB24B394B6E6D7
S11305C0CB2EB0E0DB2E12E0412E7724739457B883
S11305D08FE99FE00197F1F700C0000024B185B1D5
S11305E030E0382B629EC001639E900D112497FD6C
S11305F055C0892F880F880B892E8594982EF70172
S11306009501119221503040E1F78F938F92DF9240
S1130610CF92FF92EF920E9451038AE00E94280237
S113062089810F900F900F900F900F900F90882357
S113063051F08E010E5F1F4F0E946B02F8018191F1
S11306408F018111F9CF38E283169104F0F472BA64
S1130650FFEF21EE34E0F15020403040E1F700C0DC
S1130660000080E00E94030281E00E94030280E017
S11306700E94280201E610E084E50E946B02F80162
S113068081918F018111F9CFA2CF42BA86E090E027
S113069075BA15BA01970097D9F7DACF81509E4FF2
S11306A0A8CFAEE0B0E0E7E5F3E00C94F9050D89DE
S11306B01E8986E08C831A8309838FEF9FE79E83CC
S11306C08D83AE01475E5F4F6F89788DCE010196B1
S11306D00E947303EF81F885E00FF11F10822E96BC
S11306E0E4E00C941506ACE0B0E0E9E7F3E00C9428
S11306F0EB057C016B018A01FC0117821682838160
S113070081FFBDC1CE0101964C01F7019381F60131
S113071093FD859193FF81916F01882309F4ABC107
S1130720853239F493FD859193FF81916F01853270
S113073029F4B70190E00E945B05E7CF512C312CDE
S113074020E02032A0F48B3269F030F4803259F08A
S1130750833269F420612CC08D3239F0803339F44E
S1130760216026C02260246023C0286021C027FDA8
S113077027C030ED380F3A3078F426FF06C0FAE08F
S11307805F9E300D1124532E13C08AE0389E300D25
S11307901124332E20620CC08E3221F426FD6BC14D
S11307A0206406C08C3611F4206802C0883641F4F7
S11307B0F60193FD859193FF81916F018111C1CF62
S11307C0982F9F7D9554933028F40C5F1F4FFFE3BF
S11307D0F9830DC0833631F0833771F0833509F026
S11307E05BC022C0F801808189830E5F1F4F4424BF
S11307F04394512C540115C03801F2E06F0E711C62
S1130800F801A080B18026FF03C0652D70E002C00E
S11308106FEF7FEFC5012C870E9450052C018301E7
S11308202C852F77222E17C03801F2E06F0E711C31
S1130830F801A080B18026FF03C0652D70E002C0DE
S11308406FEF7FEFC5012C870E9445052C012C8595
S11308502068222E830123FC1BC0832D90E04816C0
S11308605906B0F4B70180E290E00E945B053A9427
S1130870F4CFF50127FC859127FE81915F01B70133
S113088090E00E945B0531103A94F1E04F1A510850
S11308904114510471F7E5C0843611F0893639F5F5
S11308A0F80127FF07C060817181828193810C5F09
S11308B01F4F08C060817181882777FD8095982F2C
S11308C00E5F1F4F2F76B22E97FF09C0909580952B
S11308D0709561957F4F8F4F9F4F2068B22E2AE00D
S11308E030E0A4010E948D05A82EA81844C08537C5
S11308F029F42F7EB22E2AE030E025C0F22FF97FB2
S1130900BF2E8F36C1F018F4883579F0B4C0803723
S113091019F0883721F0AFC02F2F2061B22EB4FE1A
S11309200DC08B2D8460B82E09C024FF0AC09F2FF0
S11309309660B92E06C028E030E005C020E130E022
S113094002C020E132E0F801B7FE07C06081718186
S1130950828193810C5F1F4F06C06081718180E0AA
S113096090E00E5F1F4FA4010E948D05A82EA818C9
S1130970FB2DFF77BF2EB6FE0BC02B2D2E7FA514AB
S113098050F4B4FE0AC0B2FC08C02B2D2E7E05C064
S11309907A2C2B2D03C07A2C01C0752C24FF0DC09A
S11309A0FE01EA0DF11D8081803311F4297E09C016
S11309B022FF06C07394739404C0822F867809F0D2
S11309C0739423FD13C020FF06C05A2C731418F42B
S11309D0530C5718732C731468F4B70180E290E039
S11309E02C870E945B0573942C85F5CF731410F447
S11309F0371801C0312C24FF12C0B70180E390E006
S1130A002C870E945B052C8522FF17C021FF03C0A1
S1130A1088E590E002C088E790E0B7010CC0822F1F
S1130A20867859F021FD02C080E201C08BE227FDE7
S1130A308DE2B70190E00E945B05A51438F4B7017C
S1130A4080E390E00E945B055A94F7CFAA94F401E6
S1130A50EA0DF11D8081B70190E00E945B05A110B1
S1130A60F5CF332009F451CEB70180E290E00E9423
S1130A705B053A94F6CFF7018681978102C08FEF28
S1130A809FEF2C96E2E10C940706FC01059061505F
S1130A9070400110D8F7809590958E0F9F1F089590
S1130AA0FC016150704001900110D8F78095909539
S1130AB08E0F9F1F08950F931F93CF93DF93182FCB
S1130AC0092FEB018B8181FD03C08FEF9FEF20C0C5
S1130AD082FF10C04E815F812C813D8142175307F4
S1130AE07CF4E881F9819F012F5F3F4F398328838C
S1130AF0108306C0E885F985812F0995892B29F78C
S1130B002E813F812F5F3F4F3F832E83812F902F74
S1130B10DF91CF911F910F910895FA01AA272830F0
S1130B2051F1203181F1E8946F936E7F6E5F7F4FB6
S1130B308F4F9F4FAF4FB1E03ED0B4E03CD0670F32
S1130B40781F891F9A1FA11D680F791F8A1F911D85
S1130B50A11D6A0F711D811D911DA11D20D009F4D5
S1130B6068943F912AE0269F11243019305D319317
S1130B70DEF6CF010895462F4770405D4193B3E000
S1130B800FD0C9F7F6CF462F4F70405D4A3318F0A7
S1130B90495D31FD4052419302D0A9F7EACFB4E058
S1130BA0A6959795879577956795BA95C9F7009710
S1130BB06105710508959B01AC010A2E06945795B1
S1130BC0479537952795BA95C9F7620F731F841F08
S1130BD0951FA01D08952F923F924F925F926F929E
S1130BE07F928F929F92AF92BF92CF92DF92EF92B9
S1130BF0FF920F931F93CF93DF93CDB7DEB7CA1B3A
S1130C00DB0B0FB6F894DEBF0FBECDBF09942A8864
S1130C10398848885F846E847D848C849B84AA840C
S1130C20B984C884DF80EE80FD800C811B81AA8199
S1130C30B981CE0FD11D0FB6F894DEBF0FBECDBF64
S10B0C40ED010895F894FFCFC3
S10F0C4854656D703A002564202A4300B6
S9030000FC
